:020000040000FA
:2000000048040020F130000011310000D5300000000000000000000000000000000000000C
:200020000000000000000000000000001531000000000000000000001731000041390000B8
:200040001B3100001B3100001B3100001B3100001B3100001B3100001B3100001B31000040
:200060001B310000F13A00001B3100001B3100001B310000513B00001B3100001B31000001
:200080001B3100001B3100001B3100001B3100001B3100001B3100001B3100001B31000000
:2000A0001B3100001B3100001B3100001B3100001B3100001B3100001B3100001B310000E0
:2000C0000348854600F0A4F800480047F14100004804002004207146084202D0EFF30980EF
:2000E00001E0EFF308807146004A10477D3700000A480B4901600B4901600B4901600B4AE3
:200100000B491160002101600A4880470A480047FEE7FEE7FEE7FEE7FEE7FEE70001005037
:2001200059000000160000008800000024000050A55A0000FD310000C130000030B50B4600
:20014000014600202022012409E00D46D5409D4205D31D469540491B254695404019154639
:20016000521E002DF1DC30BD03460B439B0703D009E008C9121F08C0042AFAD203E00B7809
:200180000370401C491C521EF9D27047F0B51FB40646002082B005464024019100901BE057
:2001A000019922460F46304600F054F8049A059B801A994110D310461946224600F03AF862
:2001C000361A8F410197224601200021009F00F031F838184D4100902046641E0028DFDCCC
:2001E000019B00982946324607B0F0BD02490A6802430A607047000000020050704770479D
:2002000046575F5645525F563030322E30303200064C0125064E05E0E36807CC2B430C3C69
:2002200098471034B442F7D3FFF74EFFE44300000444000010B5202A04DB0146203A9140C9
:20024000002010BD914020239C1A0346E3401943904010BD10B5202A04DB0846203AD040DC
:20026000002110BD0B46D340D0402024A21A91400843194610BD00001FB509491EC9039430
:200280006C460EC4810F8A0069468A58054951184A68C306DB0E0120984002434A601FBD50
:2002A0004443000000020050F0B507000C46564885B054490162554E016813D0042211432B
:2002C0000160102000F09CF90120C00402905048042503904F485049201888420DD8002006
:2002E00004901CE0012211430160104600F088F90020022503960290ECE748484849201831
:20030000884203D801206400049008E04548454920184942884249D80320A40004900026ED
:20032000F64300200090019021E029460398FFF705FF3D493D4A4118914217D20222354B78
:20034000014651435B1CCF185B429F420AD8A14201D90B1B00E0631AB34203D21E00009547
:20036000019203D03249521C8A42E8D96D1C212DDBD904980299800308430099012249020A
:200380009202891A08430199891E08431E490862042000F035F904990098491C4143039883
:2003A000FFF7CCFE0199484305B0F0BD002F0FD0204915480162042000F022F91EA000686A
:2003C00000901148016A0013014203D00020EBE71A49EEE7080300D50D4E880301D5304664
:2003E000E2E70804800F6A46105CCA058904C90E891CD20D4143B008921C5043FFF79EFEB7
:200400008000D1E70000010000020050001BB70000805101FF1E0AFAFFE0F5057F0F05FD23
:200420007FF0FA02C08782FEFF95E7FFBF77CC00010200006FD60800010202042EC20000C5
:2004400010B500F09FFA0148006810BD0000002010B500F097FA0148006810BD00000020CC
:2004600002480068C00700D00148704700020050001BB70010B500F085FA0148006810BD5D
:200480000000002008B511A0006800901048016A0013014201D0002008BD080301D50D48D1
:2004A00000E00D488A03F7D40A04920F6B469B5CCA058904D20DC90E891C8008921C5943CF
:2004C0005043FFF73BFE800008BD0000010202040002005000805101001BB700F8B51C4D00
:2004E0000446EE68102006401A48844202D84010844200D2044628680427384328601020C4
:2005000000F07EF82869072108432861A86900090001A861E868C00705D061000020FFF761
:20052000C3FE044608E001206100C004FFF7BCFEEE680446102006400121022000F00CF884
:20054000002E02D12868B84328606008F8BD00000002005080F0FA0270B5104CE5681022AC
:2005600015402268042632432260E268D206FCD5226907231A432261A269120912010A436D
:20058000A261216999430143216100F0FBF9002D02D12068B043206070BD000000020050CE
:2005A0007FB5154B78CB03966E4638C6840A23061B0E0CD003039B0F104D9B005B19E5B2AA
:2005C0008405E40EA5401C68AC4314431C60420E520710D08200920F92006B469A58074B42
:2005E000083BD21803015B0FC001C00E834010689843084310607FBD3443000018020050E3
:2006000010B504460749084B05E00A46491E002A01DC002010BDDA6820469043F5D1012036
:2006200010BD0000804F12000002005010B5154800F058F9144CE1214902204600F0F2FA68
:200640001121204600F0C4FA0120104940030860FFF706FF01460EA000F06CFBFFF7F8FEFC
:20066000014612A000F066FBFFF704FF014615A000F060FBFFF7E4FE014618A000F05AFBD4
:2006800010BD0000110000040000154000E100E00D0A434C4B5F476574435055467265717C
:2006A000203A202538640D0A00000000434C4B5F47657448585446726571203A20253864D2
:2006C0000D0A0000434C4B5F4765744C585446726571203A202538640D0A0000434C4B5F99
:2006E00047657450434C4B3046726571203A202538640D0A00000000024801680122114376
:200700000160704700C0005005492E22CA60486001200861BFF36F8F08690028FCD17047EA
:2007200000C0005010B505200007426B012189038A434263426B4263054C0122204600F0CF
:2007400009F80122D103204600F004F810BD000040400050F0B5002301273C469C400C4216
:2007600008D005685C000326A640B5431646A640354305605B1C102BEFD3F0BD044603A0A4
:2007800000F0D8FA204600F059FDFEE7496E2048617264204661756C742048616E646C6528
:2007A000720A0000F8B5174A0C4605469369D800FCD500F0A5F8FFF79FFF134E0227002D95
:2007C00002D0012D0FD104E0012080F31088002004E0012080F3108803200003FFF794FF4A
:2007E0003068B8433060002C06D0012C06D0022C01D100F070F8F8BD00F012F800F064F87E
:20080000F8BD00000000154000C00050C106C90E01208840014908607047000000E100E00D
:20082000BFF34F8F03490248C860BFF34F8FFEE70400FA0500ED00E010B500F061F80420F3
:20084000FFF7D4FC1020FFF7DBFE00210720FFF783FE1848FFF742FE174C2046FFF70CFDB6
:200860000321002209062046FFF79AFE134C2046FFF702FD0721002209022046FFF790FE36
:200880000F4C2046FFF7F8FC0721002209032046FFF786FE05200007426B30218A434263DB
:2008A000426B0A43426300F06DF806490020086010BD000080F0FA02113D80570200805E2F
:2008C0000300C05E00010050052000078168022211438160704705200007816801221143F5
:2008E000816070470521020E090751188B680122824013438B608868904388607047000036
:2009000010B5592116230548882202E00160036002600468012CF9D110BD000000010050DF
:2009200006498A691202FCD40A2804D10D220A608A691202FCD408607047000000001540A6
:2009400010B500F0CFFC0A4CA068401C00D1A060A0687D21C900FFF7F1FB002906D1E268F1
:200960000449501CE06004A000F0E4F910BD000030000020C34300002573203A202534641B
:200980000D0A000038B51DA000681D4C0090216A2013014201D0002016E0080301D519480B
:2009A00000E019488A030FD40A04920F6B469B5CCA058904D20DC90E891C8008921C5943A6
:2009C0005043FFF7BBFB8000104DA86021694907490F022903D0880029460C310858A16925
:2009E0000907090F491CFFF7A9FB094928604A108018FFF7A3FB686038BD000001020204AA
:200A00000002005000805101001BB7000000002040420F0010B50A4C7D220121D200C906B2
:200A2000204600F045F82068210608432060081504490860206889050843206010BD000029
:200A40002000014000E100E010B588B00446202212496846FFF788FB114912488C4202D114
:200A60004069000A0DE00E4920318C4202D14069000B06E00C4940698C4201D1000C00E069
:200A8000000D4007400F022804D080006946085808B010BD05480068FAE700009443000034
:200AA00000000140000200500000114000000020F7B517460646FFF7C7FF0546002440086A
:200AC000B84201D2022008E039462846FFF736FB040E02D0611CFFF731FB01992143316019
:200AE0007060641C604301462846FFF727FBFEBD70B50F488168C907C90F17D0012585607C
:200B000000F0F8FB0B4C6068FF21F531FFF716FB00290AD122690849501C206107A000F022
:200B200009F90A48816B69408163606870BD00002000014030000020D34300003229257339
:200B4000203A202534640D0A000000004042005010B50B4CE069FF211131084202D104E0AD
:200B600000F0A4F8A1694904FAD5A16920467122114203D00921890200F004F810BD00002C
:200B8000000015404A0503D570228261082282610A0503D5426901231A4342618A0401D53D
:200BA000094A8261CA0302D501221204C2618A0302D501225204C261090403D58021C16157
:200BC0000249816370470000010000010F03000010B542680A4342600D49884209D00D496E
:200BE000884203D10D20FFF711FE10BD0A49884201D10C20F7E70949884201D10F20F2E769
:200C00000749884201D11020EDE71120EBE70000000005400000154000401540004005402D
:200C200000800540F0B504461C480D460FC885B06E460FC61A48416980698A010321960F6B
:200C40000005070F00202063E160A06815490840A060012E02D1FFF715FC0190002D1BD035
:200C6000B10068464058791CFFF768FA0646690840182946FFF762FA0B49801E884207D91E
:200C8000E90070182946FFF759FA0009801E02E0032109070843606205B0F0BD6443000058
:200CA000000200500FFFF0FFFFFF000010B512480068C0B27F2803D910A000F03BF810BDCB
:200CC0005A2809D004DC3128F9D05828F7D103E0782801D07A28F2D100F096FAA52000F081
:200CE00011FB00F091FA0AA000F024F801210020FFF758FD10BD000000001540696E76615A
:200D00006C696420636F6D6D616E640D0A000000506572666F726D2052535420746F206508
:200D20006E74657220424F4F544C4F414445520D0A0000000FB410B503A9044B044A02986D
:200D400000F016F810BC08BC04B01847E54100002C00002002E008C8121F08C1002AFAD1DF
:200D60007047002001E001C1121F002AFBD17047FFB591B00F460546002606E025280AD053
:200D8000149A139990476D1C761C28780028F5D1304615B0F0BD002400940121F34A0294E4
:200DA00000E004436D1C2B780846203B98401042F7D128782A280ED0022128780246303A00
:200DC000092A15D8009A0A235A43303A80180C436D1C0090F1E701CF0090002805DA0120C5
:200DE00040030443009840420090022004436D1C28782E2815D10420044368786D1C2A28CB
:200E00000AD101CF6D1C02900BE002990A225143303940186D1C0290287801463039092968
:200E2000F3D928786C2810D006DC4C281AD068280ED06A2817D104E0742813D07A2812D1C2
:200E400010E00120400504430CE00121090501E0032109050C436978814203D101200005D9
:200E600024186D1C6D1C287803906E281ED00CDC632831D004DC00288AD0582811D1B2E0A3
:200E800064287BD069280CD178E073282DD004DC6F2870D0702804D1A7E075286CD07828F9
:200EA0006BD0149A13999047761C62E06002400F022807D003280AD0042838680AD006602F
:200EC0003F1D56E03868F11706604160F8E738680680F5E70670F3E73878694608740020A5
:200EE000487404A80390012003E0386803900020C0433F1D61070FD5002101E00199491CF4
:200F0000029A0191914213DA8142F7DB019A0399895C0029F2D10BE0002101E00199491C5A
:200F200001918142FADB019A0399895C0029F5D101990098139A401A00902146149B00F0AD
:200F40003BF901998019461807E0039803990078491C0391149A139990470198401E019084
:200F6000401CF2D12146149B139A009800F014F986196D1C09E741E033E034E00A2000214F
:200F8000049005916002410F022905D001CFC2179446032905D007E0FF1DFF08FF0003CF16
:200FA00006E000B2C2179446042902D140B2C1178C4600226146944506DA0A4600214042D5
:200FC00091418C462D2102E0210504D52B216A461176012103E0E10701D02021F7E701914C
:200FE00054E00A200BE0102009E01020049000210420044308200591029003E008200021C3
:20100000059104906002410F022905D001CF00229446032906D006E0FF1DFF08FF0003CF4C
:201020008C4603E080B2042900D1C0B20021019121072BD50399702906D0049A1021059B04
:201040004A401A4305D00EE040216A461176012108E06146014306D030216A46117603995F
:20106000517602210191049A0821059B4A401A430CD16146014301D1610707D530216A46C7
:201080001176012101910299491E02910399582904D037A103910FA90F910DE039A1F9E724
:2010A0006146059B049AFFF771F8039B8C469B5C0F9A521E0F92137061460143F0D10F98F5
:2010C00007A9081A20300390600704D5012000048443029801E0012002900399884201DDBD
:2010E000401A00E0002041180290019809180098401A0090E00306D42146149B139A009857
:2011000000F05AF886190020049008E006A9085C149A139990470498401C761C0490019956
:201120008842F3DBE0030CD52146149B139A009800F042F8861904E0149A302013999047CA
:20114000761C0299481E02900029F5DC08E00F980F990078491C0F91149A13999047761CF9
:201160000399481E03900029F1DCFBE609280100303132333435363738396162636465666F
:20118000000000003031323334353637383941424344454600000000F8B5044600251E462D
:2011A0001746880404D405E039462020B0476D1C641EF9D52846F8BDFFB50446002581B083
:2011C0001E46C80301D5302700E02027880404D505E038460399B0476D1C641EF9D52846EA
:2011E00005B0F0BD00B50346FFF79AFB184600BDFFF722FBFFF796FAFFF718FAFFF70AFC4C
:2012000000F002F8FEE7000010B50448047804A02146FFF78FFD204610BD0000FC1F002077
:2012200052656164204D61676963546167203C3078253032583E0D0A0000000010B50446CE
:20124000016810A0FFF776FD11A06168FFF772FD12A0A168FFF76EFD13A0E168FFF76AFDB8
:2012600014A02169FFF766FD15A06169FFF762FD16A0A169FFF75EFD17A0E169FFF75AFDA4
:2012800010BD0000723020203D20307825780A00723120203D20307825780A007232202080
:2012A0003D20307825780A00723320203D20307825780A00723132203D20307825780A0050
:2012C0006C7220203D20307825780A00706320203D20307825780A00707372203D2030780B
:2012E00025780A0002488168491C8160704700003000002002484168491C41607047000017
:201300003000002010B503490860014602A0FFF711FD10BDFC1F00205772697465204D6136
:20132000676963546167203C3078253032583E0D0A00000000000000040000000C00000016
:201340002400000000000000040000002C0000000000000000000000040000002C00000009
:2013600000000000001BB700000000000000000000805101001BB7000000000000000000F7
:2013800000805101001BB700000000000000000000805101001BB700000000000000000005
:2013A0000000000000000000102700000000000000805101636F6D706172655F627566663B
:2013C0006572005379735469636B5F48616E646C657200544D52315F49525148616E646CF9
:2013E00065720000044400000000002044000000543D0000484400004400002004040000E1
:20140000623D000080F0FA023200000080F0FA02001BB7000000000080F0FA0210270000AE
:201420000000000000000000000000000080510100000000000000000000000000000000DA
:201440000000000000000000FFFFFFFFFFFFFFFFFFFFFFFFFFFFFFFFFFFFFFFFFFFFFFFFA4
:20146000FFFFFFFFFFFFFFFFFFFFFFFFFFFFFFFFFFFFFFFFFFFFFFFFFFFFFFFFFFFFFFFF8C
:20148000FFFFFFFFFFFFFFFFFFFFFFFFFFFFFFFFFFFFFFFFFFFFFFFFFFFFFFFFFFFFFFFF6C
:2014A000FFFFFFFFFFFFFFFFFFFFFFFFFFFFFFFFFFFFFFFFFFFFFFFFFFFFFFFFFFFFFFFF4C
:2014C000FFFFFFFFFFFFFFFFFFFFFFFFFFFFFFFFFFFFFFFFFFFFFFFFFFFFFFFFFFFFFFFF2C
:20CFE000FFFFFFFFFFFFFFFFFFFFFFFFFFFFFFFFFFFFFFFFFFFFFFFFFFFFFFFFBD1B53958D
:00000001FF
