:020000040000FA
:10000000F80A0020F100000011010000D5000000F6
:1000100000000000000000000000000000000000E0
:1000200000000000000000000000000015010000BA
:100030000000000000000000170100005D0D00003E
:100040001B0100001B0100001B0100001B01000040
:100050001B0100001B0100001B0100001B01000030
:100060001B010000050F00001B0100001B01000028
:10007000250F0000710F00001B0100001B01000094
:100080001B0100001B0100001B0100001B01000000
:100090001B0100001B0100001B0100001B010000F0
:1000A0001B0100001B0100001B0100001B010000E0
:1000B0001B0100001B0100001B0100001B010000D0
:1000C0000348854600F0A4F800480047111A0000D4
:1000D000F80A002004207146084202D0EFF309809C
:1000E00001E0EFF308807146004A1047C90800009C
:1000F0000A480B4901600B4901600B4901600B4A3A
:100100000B491160002101600A4880470A480047F6
:10011000FEE7FEE7FEE7FEE7FEE7FEE70001005030
:100120005900000016000000880000002400005064
:10013000A55A0000310E0000C100000030B50B468A
:10014000014600202022012409E00D46D5409D42B1
:1001500005D31D469540491B254695404019154637
:10016000521E002DF1DC30BD03460B439B0703D02C
:1001700009E008C9121F08C0042AFAD203E00B786C
:100180000370401C491C521EF9D27047D2B201E0E4
:100190000270401C491EFBD270470022F6E710B5E2
:1001A00013460A4604461946FFF7F0FF204610BDE5
:1001B000F0B51FB40646002082B0054640240191E8
:1001C00000901BE0019922460F46304600F042F8AD
:1001D000049A059B801A994110D31046194622466D
:1001E00000F028F8361A8F4101972246012000219D
:1001F000009F00F01FF838184D4100902046641E03
:100200000028DFDC019B00982946324607B0F0BD8C
:10021000064C0125064E05E0E36807CC2B430C3C59
:1002200098471034B442F7D3FFF74EFF3C1F00004D
:100230005C1F000010B5202A04DB0146203A9140E3
:10024000002010BD914020239C1A0346E34019432F
:10025000904010BD10B5202A04DB0846203AD0405B
:10026000002110BD0B46D340D0402024A21A91405B
:100270000843194610BD00001FB509491EC9039463
:100280006C460EC4810F8A0069468A580549511888
:100290004A68C306DB0E0120984002434A601FBD36
:1002A000AC1E000000020050F0B507000C46564896
:1002B00085B054490162554E016813D004221143A0
:1002C0000160102000F0A4F90120C0040290504801
:1002D000042503904F485049201888420DD800202B
:1002E00004901CE0012211430160104600F090F9D7
:1002F0000020022503960290ECE748484849201860
:10030000884203D801206400049008E0454845492C
:1003100020184942884249D80320A40004900026AE
:10032000F64300200090019021E029460398FFF752
:1003300005FF3D493D4A4118914217D20222354BF3
:10034000014651435B1CCF185B429F420AD8A14231
:1003500001D90B1B00E0631AB34203D21E000095C3
:10036000019203D03249521C8A42E8D96D1C212DDA
:10037000DBD90498029980030843009901224902BD
:100380009202891A08430199891E08431E4908628E
:10039000042000F03DF904990098491C414303985A
:1003A000FFF7CCFE0199484305B0F0BD002F0FD0F8
:1003B000204915480162042000F02AF91EA00068B7
:1003C00000901148016A0013014203D00020EBE7BE
:1003D0001A49EEE7080300D50D4E880301D53046D3
:1003E000E2E70804800F6A46105CCA058904C90E5A
:1003F000891CD20D4143B008921C5043FFF79EFE6A
:100400008000D1E70000010000020050001BB7008F
:1004100000805101FF1E0AFAFFE0F5057F0F05FD80
:100420007FF0FA02C08782FEFF95E7FFBF77CC001E
:10043000010200006FD60800010202042EC2000073
:1004400002490A6802430A60704700000002005037
:1004500010B500F0A5FC0148006810BD00000020A8
:1004600010B500F09DFC0148006810BD00000020A0
:1004700002480068C00700D00148704700020050E1
:10048000001BB70010B500F08BFC0148006810BDE0
:100490000000002008B511A0006800901048016A13
:1004A0000013014201D0002008BD080301D50D480A
:1004B00000E00D488A03F7D40A04920F6B469B5C58
:1004C000CA058904D20DC90E891C8008921C5943A3
:1004D0005043FFF733FE800008BD00000102020414
:1004E0000002005000805101001BB700F8B51C4D00
:1004F0000446EE68102006401A48844202D8401094
:10050000844200D20446286804273843286010201B
:1005100000F07EF82869072108432861A8690009CE
:100520000001A861E868C00705D061000020FFF75E
:10053000BBFE044608E001206100C004FFF7B4FEE2
:10054000EE680446102006400121022000F00CF85D
:10055000002E02D12868B84328606008F8BD00006A
:100560000002005080F0FA0270B5104CE5681022CD
:1005700015402268042632432260E268D206FCD588
:10058000226907231A432261A269120912010A4350
:10059000A261216999430143216100F001FC002D12
:1005A00002D12068B043206070BD000000020050FE
:1005B0007FB5154B78CB03966E4638C6840A230662
:1005C0001B0E0CD003039B0F104D9B005B19E5B273
:1005D0008405E40EA5401C68AC4314431C60420E25
:1005E000520710D08200920F92006B469A58074B28
:1005F000083BD21803015B0FC001C00E8340106896
:100600009843084310607FBD9C1E000018020050F4
:1006100010B504460749084B05E00A46491E002A62
:1006200001DC002010BDDA6820469043F5D101209E
:1006300010BD0000804F120000020050034610B5AC
:100640000020024603E09C5C201880B2521C8A42C3
:10065000F9DB10BD10B5154800F042FB144CE12148
:100660004902204600F014FD1121204600F0C0FC94
:100670000120104940030860FFF7FAFE01460EA072
:1006800000F0BEFDFFF7ECFE014616A000F0B8FD3D
:10069000FFF7F8FE01461EA000F0B2FDFFF7D8FEFE
:1006A000014626A000F0ACFD10BD000011000004C2
:1006B0000000154000E100E01B5B313B33366D5B11
:1006C0004C44524F4D5D0D0A434C4B5F476574439C
:1006D000505546726571203A202538640D0A1B5B1F
:1006E000306D00001B5B313B33366D5B4C44524F29
:1006F0004D5D434C4B5F4765744858544672657175
:10070000203A202538640D0A1B5B306D0000000084
:100710001B5B313B33366D5B4C44524F4D5D434C5C
:100720004B5F4765744C585446726571203A2025DA
:1007300038640D0A1B5B306D000000001B5B313B11
:1007400033366D5B4C44524F4D5D434C4B5F4765B8
:100750007450434C4B3046726571203A2025386402
:100760000D0A1B5B306D000070B50446451805E0AE
:10077000204600F007F8FF34FF340234A542F7D8D2
:1007800070BD000008492222CA604860012008614B
:10079000BFF36F8F0868420603D508600020C0438E
:1007A000704700207047000000C0005002480168F8
:1007B000012211430160704700C000500649002229
:1007C000CA60486001200861BFF36F8F0869002884
:1007D000FCD188687047000000C00050094A00231F
:1007E000D3605060936001201061BFF36F8F106879
:1007F000430603D510600020C0437047906808602E
:100800000020704700C0005005492E22CA60486091
:1008100001200861BFF36F8F08690028FCD1704781
:1008200000C00050084A2123D3605060916001202D
:100830001061BFF36F8F1068410603D51060002070
:10084000C04370470020704700C00050F8B505460F
:1008500000260C460E60032069460005FFF7BEFF28
:100860000098154F410703D5380128602760F8BD6F
:100870001249C00705D00868C019086028602660C2
:10088000F8BD08680E46C019086069460C48FFF7B5
:10089000A5FF0C490098084000903168CA199042A1
:1008A00000D900910098286030680099401A2060B3
:1008B0003168081A3060F8BD0010000068000020A0
:1008C0000400300000FE0F00044603A000F098FC76
:1008D000204601F0D3F9FEE7496E2048617264209A
:1008E0004661756C742048616E646C65720A000024
:1008F000F8B5174A0C4605469369D800FCD500F0B8
:100900000DFAFFF753FF134E0227002D02D0012DE1
:100910000FD104E0012080F31088002004E00120C2
:1009200080F3108803200003FFF76EFF3068B843A0
:100930003060002C06D0012C06D0022C01D100F032
:10094000C8F9F8BD00F012F800F0BCF9F8BD0000DD
:100950000000154000C00050C106C90E01208840AB
:10096000014908607047000000E100E0BFF34F8FCD
:1009700003490248C860BFF34F8FFEE70400FA0541
:1009800000ED00E0F3B583B0039F8B4D049E3C68FF
:10099000002068602A460832032088490005083E86
:1009A0000837009200F022F9A8680221019008405F
:1009B0000290A42C1AD0002C74D0FF2C79D080483F
:1009C000A62C846116D0B12C17D0AB2C1AD0AC2C2D
:1009D00018D0AD2C16D0AE2C1CD0AF2C1ED0A02C15
:1009E0001FD0A32C1DD0CA2C3DD033E039687448E9
:1009F0004161E4E73120287254E0052000070068D7
:100A0000A860CCE0BB2001F029FA01210020FFF70B
:100A10006FFFFEE76A4901204861C0E0002005B091
:100A2000F0BD6748016A03200003FFF79DFEA32C79
:100A30000DD16349486A896A4118FFF795FE01980C
:100A400002210843A8600021009800F0A5FB5C4942
:100A50000120C861A02C19D0C32C0DD0A12C29D005
:100A6000FF2C36D01EE057480068800701D50220D1
:100A700000E00120A86015E05149486A0860896AD1
:100A8000002915D04118FFF76FFE03E003204C4901
:100A90000003086078684A49083E88600A684A602E
:100AA0000837C860464CA069A0283CD0C3283AD07B
:100AB00075E00EE042480299C06901436FD03846A4
:100AC000009900F069FB3E492831081FFFF7BEFE80
:100AD00065E03B4C3C4E21682069091A2160A26800
:100AE0001018A060344A08463040403200F07EF8CA
:100AF00020683040FFF746FE20682F4A014630400C
:100B0000403200F06FFB206801212369C2054902D1
:100B1000D20DC91A8A4242D33040FF30FF30023032
:100B2000FFF730FE3BE0A068B04200D20646801BD3
:100B3000A06020683A46811900F054FB31463846DF
:100B4000FFF72BFB20683A46811900F04FF8206828
:100B5000266180192060A068002820D1606800907C
:100B60000026E768344617E00098134A0019C11DB3
:100B7000FF31FA31403200F039F80121381B4902C7
:100B8000884200D201460C484030FFF757FD8019DB
:100B9000FF34FF3486B20234BC42E5D32E8104997F
:100BA0000398FFF74BFD288005494869401C6860A1
:100BB000401C486132E70000780400200800300043
:100BC0004800002000C0005000FE0F000549064A02
:100BD00000208B691B02FCD4135C0B60401C402876
:100BE000F7D37047000005407804002070B5154623
:100BF0000E46044605E029462046FFF7EFFD241D7A
:100C00002D1DB442F7D370BD052109074A68024380
:100C10004A607047052000074068704770B500F0D3
:100C20006DF80420FFF70CFC1020FFF7F1FC002109
:100C30000720FFF799FC1F48FFF758FC1E4D284678
:100C4000FFF71AFB03242406002221462846FFF75B
:100C5000AFFC6D1C2846FFF70FFB002221462846FB
:100C6000FFF7A6FC154C2046FFF706FB07210022E4
:100C700009022046FFF79CFC114C2046FFF7FCFAC6
:100C80000721002209032046FFF792FC05200007F8
:100C9000416B890889004163416B03221143416321
:100CA000426B30218A434263426B0A43426300F045
:100CB00077F870BD80F0FA02103D80570200805E28
:100CC0000300C05E05200007816802221143816095
:100CD0007047052000078168012211438160704739
:100CE0000521020E090751188B6801228240134327
:100CF0008B608868904388607047000010B5592168
:100D000016230548882202E001600360026004683F
:100D1000012CF9D110BD00000001005010B559217F
:100D200016230548882202E001600360026004681F
:100D3000012CF9D110BD00000001005006498A695C
:100D40001202FCD40A2804D10D220A608A69120218
:100D5000FCD40860704700000000154010B500F09A
:100D6000E1FF0A4CA068401C00D1A060A0687D2172
:100D7000C900FFF7E3F9002906D162690449501C54
:100D8000606104A000F03CFA10BD000030000020BB
:100D90002B1F00002573203A202534640D0A000023
:100DA00038B51DA000681D4C0090216A2013014237
:100DB00001D0002016E0080301D5194800E01948C9
:100DC0008A030FD40A04920F6B469B5CCA05890400
:100DD000D20DC90E891C8008921C59435043FFF75D
:100DE000ADF98000104DA86021694907490F02291B
:100DF00003D0880029460C310858A1690907090F5A
:100E0000491CFFF79BF9094928604A108018FFF731
:100E100095F9686038BD000001020204000200502C
:100E200000805101001BB7000000002040420F006D
:100E30007047000010B5074C0122D106204600F093
:100E400041F821682206114321600349101508600A
:100E500010BD00002000014000E100E010B588B0A6
:100E60000446202212496846FFF77EF911491248CC
:100E70008C4202D14069000A0DE00E4920318C42BB
:100E800002D14069000B06E00C4940698C4201D157
:100E9000000C00E0000D4007400F022804D0800045
:100EA0006946085808B010BD05480068FAE7000018
:100EB000FC1E000000000140000200500000114034
:100EC00000000020F7B517460646FFF7C7FF0546A6
:100ED00000244008B84201D2022008E039462846E2
:100EE000FFF72CF9040E02D0611CFFF727F90199D6
:100EF000214331607060641C604301462846FFF75F
:100F00001DF9FEBD05488168C907C90F05D001213B
:100F100081600348C168491CC160704720000140DE
:100F20003000002070B50F4DEC6911200E4B0442CB
:100F30000DD00E4EA869400409D45878402806D236
:100F4000296858783218401C58701170F2E75978A7
:100F50000020402903D0E10600D5587070BD012162
:100F60001970FAE70000054074000020B806002060
:100F700010B50B4CE069FF211131084202D104E0A9
:100F800000F0CAF8A1694904FAD5A1692046712286
:100F9000114203D00921890200F004F810BD0000BD
:100FA000000015404A0503D5702282610822826143
:100FB0000A0503D5426901231A4342618A0401D517
:100FC000094A8261CA0302D501221204C2618A035E
:100FD00002D501225204C261090403D58021C161F6
:100FE0000249816370470000010000010F03000007
:100FF00010B542680A4342600D49884209D00D4944
:10100000884203D10D20FFF7A7FC10BD0A49884292
:1010100001D10C20F7E70949884201D10F20F2E7FE
:101020000749884201D11020EDE71120EBE70000CD
:1010300000000540000015400040154000400540FC
:10104000008005400D48002101630321C1600C4967
:1010500081600A214162016A090A09024031016284
:1010600008490A688023120A12021A430A60064AD3
:1010700059011160054941607047000000000540BA
:10108000300003000CE400E000E100E01108000083
:10109000F0B504461C480D460FC885B06E460FC615
:1010A0001A48416980698A010321960F0005070FDC
:1010B00000202063E160A06815490840A060012E6F
:1010C00002D1FFF7E7F90190002D1BD0B10068466F
:1010D0004058791CFFF732F806466908401829463F
:1010E000FFF72CF80B49801E884207D9E9007018D9
:1010F0002946FFF723F80009801E02E003210907B3
:101100000843606205B0F0BDCC1E00000002005034
:101110000FFFF0FFFFFF000010B50E480068C0B2DF
:101120007F2803D90CA000F06BF810BD5A2809D015
:1011300004DC3128F9D05828F7D103E0782801D011
:101140007A28F2D1BFF34F8F0D490C48C860BFF326
:101150004F8FFEE7000015401B5B313B33366D5B64
:101160004C44524F4D5D696E76616C696420636FCB
:101170006D6D616E640D0A1B5B306D000400FA0535
:1011800000ED00E048400006024A800D1058090AB0
:101190004840704778000020F8B5104E054630688A
:1011A0000C46102738433060B001FFF7EBFAB0016E
:1011B0002968FFF737FB6968094D2846FFF732FBBE
:1011C000002C07D02146281FFFF708FB211D2846C9
:1011D000FFF704FB3068B8433060F8BD00C0005032
:1011E0000400300070B515460E46044605E0204662
:1011F0002968FFF717FB241D2D1DB442F7D370BDDE
:101200000FB410B503A9044B044A029800F018F873
:1012100010BC08BC04B01847051A00002C000020C0
:1012200002E008C8121F08C1002AFAD170477047AF
:10123000002001E001C1121F002AFBD1704700000D
:10124000FFB591B00F460546002606E025280AD0D6
:10125000149A139990476D1C761C28780028F5D1B4
:10126000304615B0F0BD002400940121F34A0294E9
:1012700000E004436D1C2B780846203B9840104248
:10128000F7D128782A280ED0022128780246303A51
:10129000092A15D8009A0A235A43303A80180C4379
:1012A0006D1C0090F1E701CF0090002805DA0120C5
:1012B00040030443009840420090022004436D1C08
:1012C00028782E2815D10420044368786D1C2A281C
:1012D0000AD101CF6D1C02900BE002990A22514302
:1012E000303940186D1C02902878014630390929A0
:1012F000F3D928786C2810D006DC4C281AD068283E
:101300000ED06A2817D104E0742813D07A2812D19D
:1013100010E00120400504430CE00121090501E033
:10132000032109050C436978814203D1012000059E
:1013300024186D1C6D1C287803906E281ED00CDCC0
:10134000632831D004DC00288AD0582811D1B2E0BB
:1013500064287BD069280CD178E073282DD004DC78
:101360006F2870D0702804D1A7E075286CD0782839
:101370006BD0149A13999047761C62E06002400F7C
:10138000022807D003280AD0042838680AD006604B
:101390003F1D56E03868F11706604160F8E738688D
:1013A0000680F5E70670F3E7387869460874002090
:1013B000487404A80390012003E0386803900020DB
:1013C000C0433F1D61070FD5002101E00199491C71
:1013D000029A0191914213DA8142F7DB019A039953
:1013E000895C0029F2D10BE0002101E00199491C40
:1013F00001918142FADB019A0399895C0029F5D1B8
:1014000001990098139A401A00902146149B00F00D
:101410003BF901998019461807E003980399007871
:10142000491C0391149A139990470198401E01900A
:10143000401CF2D12146149B139A009800F014F935
:1014400086196D1C09E741E033E034E00A200021F1
:10145000049005916002410F022905D001CFC21707
:101460009446032905D007E0FF1DFF08FF0003CFC6
:1014700006E000B2C2179446042902D140B2C11757
:101480008C4600226146944506DA0A460021404215
:1014900091418C462D2102E0210504D52B216A467D
:1014A0001176012103E0E10701D02021F7E7019146
:1014B00054E00A200BE0102009E0102004900021E5
:1014C0000420044308200591029003E00820002135
:1014D000059104906002410F022905D001CF00223E
:1014E0009446032906D006E0FF1DFF08FF0003CF46
:1014F0008C4603E080B2042900D1C0B200210191E2
:1015000021072BD50399702906D0049A1021059B39
:101510004A401A4305D00EE040216A461176012167
:1015200008E06146014306D030216A4611760399EE
:10153000517602210191049A0821059B4A401A43E1
:101540000CD16146014301D1610707D530216A46BC
:101550001176012101910299491E0291039958299E
:1015600004D037A103910FA90F910DE039A1F9E73C
:101570006146059B049AFEF71BFE039B8C469B5C11
:101580000F9A521E0F92137061460143F0D10F98CB
:1015900007A9081A20300390600704D50120000431
:1015A0008443029801E0012002900399884201DD02
:1015B000401A00E000204118029001980918009894
:1015C000401A0090E00306D42146149B139A009819
:1015D00000F05AF886190020049008E006A9085C7B
:1015E000149A139990470498401C761C0490019912
:1015F0008842F3DBE0030CD52146149B139A009834
:1016000000F042F8861904E0149A302013999047AC
:10161000761C0299481E02900029F5DC08E00F981C
:101620000F990078491C0F91149A13999047761CD2
:101630000399481E03900029F1DCFBE6092801000C
:101640003031323334353637383961626364656638
:1016500000000000303132333435363738394142FA
:101660004344454600000000F8B5044600251E46E8
:101670001746880404D405E039462020B0476D1C85
:10168000641EF9D52846F8BDFFB50446002581B093
:101690001E46C80301D5302700E02027880404D562
:1016A00005E038460399B0476D1C641EF9D52846FD
:1016B00005B0F0BD7CB505460E461AA0FFF7A0FDAB
:1016C00000F04CF80020244CC04320610095AD1977
:1016D000009821E0FFF772F80190C0B22169FFF78E
:1016E00051FD2061019909040A0E01461046FFF7D9
:1016F00049FD2061019909020A0E01461046FFF7D3
:1017000041FD206101990A0E01461046FFF73AFD9E
:1017100020610098001D00908542DBD82069C043FD
:101720007CBD00001B5B313B33366D5B4C44524F3C
:101730004D5D454E41424C455F53575F43524333E5
:10174000323A5B5352414D5F5441424C455D0D0A64
:101750001B5B306D000000003000002030B50A4BEC
:101760000A4C00210846082205E0C50702D04008BF
:10177000584000E04008521EF7D58A00491CA0508E
:10178000FF29EFD930BD00002083B8ED780000209C
:1017900070B5FFF73FFA0546052000074168FF22B4
:1017A0001143416029461FA0FFF72AFD00F044FACB
:1017B0000446E80712D00120FFF726FAA52C03D033
:1017C000BB2C06D022A027E0002000F047FB2CA075
:1017D00013E0002000F042FB38A01DE0280615D5DC
:1017E0008020FFF711FAA52C03D0BB2C09D03FA015
:1017F00012E0002000F032FB49A0FFF701FD0120BC
:1018000070BD002000F02AFB54A005E0A80707D512
:101810000220FFF7F9F95DA0FFF7F2FC002070BD90
:1018200068A0F9E71B5B313B33366D5B4C44524F8C
:101830004D5D526573657420536F75726365203C0E
:101840003078253038583E0D0A1B5B306D000000A3
:101850001B5B313B33366D5B4C44524F4D5D456EE7
:1018600074657220424F4F544C4F4144455220669C
:10187000726F6D20504F520D0A1B5B306D000000DF
:101880001B5B313B33366D5B4C44524F4D5D456EB7
:1018900074657220424F4F544C4F4144455220666C
:1018A000726F6D204150504C49434154494F4E286E
:1018B000504F52290D0A1B5B306D00001B5B313B02
:1018C00033366D5B4C44524F4D5D557067726164A9
:1018D000652066696E69736865642E2E2E28504FE8
:1018E00052290D0A1B5B306D000000001B5B313B71
:1018F00033366D5B4C44524F4D5D456E74657220BE
:10190000424F4F544C4F414445522066726F6D20F8
:101910004350552072657365740D0A1B5B306D0072
:101920001B5B313B33366D5B4C44524F4D5D456E16
:1019300074657220424F4F544C4F414445522066CB
:10194000726F6D204150504C49434154494F4E28CD
:10195000435055290D0A1B5B306D00001B5B313B6A
:1019600033366D5B4C44524F4D5D55706772616408
:10197000652066696E69736865642E2E2E28435053
:1019800055290D0A1B5B306D000000001B5B313BCD
:1019900033366D5B4C44524F4D5D456E746572201D
:1019A000424F4F544C4F414445522066726F6D2058
:1019B0006E52455345542070696E0D0A1B5B306DA5
:1019C000000000001B5B313B33366D5B4C44524FD3
:1019D0004D5D456E74657220424F4F544C4F4144EB
:1019E00045522066726F6D20756E68616E646C651D
:1019F00020726573657420736F757263650D0A1BC1
:101A00005B306D0000B50346FFF798F9184600BD3E
:101A10001FB5002425460094019402940394FFF717
:101A20006DF9FFF7FBF8FEF715FEFFF70BFBFFF76D
:101A300001FA35484168042211434160FEF7B6FEC1
:101A4000324801680822114301600D20304900032B
:101A5000086030493048FEF7F9FEFFF799FE00288C
:101A600018D02EA0FFF7CCFB3BA0FFF7C9FB4649DF
:101A700008684A0610430860FFF740F9FEF796FE33
:101A8000424E434C434F2078042821D23878012815
:101A90001ED022E000F04EF9002815D01920400297
:101AA000694602780A55641CE4B2401C102CF8D335
:101AB00039A0FFF7A5FB44488169C900FCD5012185
:101AC0000846FEF715FFFEE740A0FFF799FBD3E7B6
:101AD0003068AE280DD03D7025704B48C068052891
:101AE000D1D94AA0FFF78CFB02210020FEF700FFAE
:101AF000C9E738780128FCD13D7040212348FEF722
:101B000041FFFFF763F8F4E70002005000C0005007
:101B100068000020700000206C0000201B5B313B3F
:101B200033366D5B4C44524F4D5D5374617920697F
:101B30006E20424F4F544C4F41444552202866720C
:101B40006F6D204150504C49434154494F4E290D2F
:101B50000A1B5B306D0000001B5B313B33366D5B55
:101B60004C44524F4D5D54696D652D6F7574206303
:101B70006F756E7465722073746172742E2E2E2EC2
:101B80000D0A1B5B306D000020000140B8060020EC
:101B900075000020740000201B5B313B33366D5B09
:101BA0004C44524F4D5D4A756D7020746F203C411E
:101BB00050504C49434154494F4E3E2C25730D0A19
:101BC0001B5B306D00000000000015401B5B313BCB
:101BD00033366D5B4C44524F4D5D537461792069CF
:101BE0006E20424F4F544C4F414445522028636869
:101BF00065636B73756D20696E7661696C64290D20
:101C00000A1B5B306D000000300000201B5B313B85
:101C100033366D5B4C44524F4D5D54696D652D6F8D
:101C200075742C20706572666F726D205245534535
:101C3000540D0A1B5B306D0010B50448047804A0F5
:101C40002146FFF7DDFA204610BD0000FC1F0020F2
:101C50001B5B313B33366D5B4C44524F4D5D5265DF
:101C60006164204D61676963546167203C30782569
:101C70003032583E0D0A1B5B306D000010B5044633
:101C8000016810A0FFF7BCFA11A06168FFF7B8FA6D
:101C900012A0A168FFF7B4FA13A0E168FFF7B0FA49
:101CA00014A02169FFF7ACFA15A06169FFF7A8FA43
:101CB00016A0A169FFF7A4FA17A0E169FFF7A0FA3F
:101CC00010BD0000723020203D20307825780A00B9
:101CD000723120203D20307825780A007232202091
:101CE0003D20307825780A00723320203D2030785E
:101CF00025780A00723132203D20307825780A009C
:101D00006C7220203D20307825780A0070632020F6
:101D10003D20307825780A00707372203D2030789D
:101D200025780A0002488168491C816070470000DC
:101D30003000002070B512A0FFF762FA194C0320A2
:101D400021680003091FFFF7B5FC0546014616A0F0
:101D5000FFF756FA1F4920684018FEF72FFD04468A
:101D600001461DA0FFF74CFAA54204D125A0FFF7BC
:101D700047FA012070BD2EA0FFF742FA002070BD87
:101D80001B5B313B33366D5B4C44524F4D5D5665AA
:101D90007269667920436865636B73756D0D0A1B04
:101DA0005B306D00680000201B5B313B33366D5BA0
:101DB0004C44524F4D5D436163756C6174656420A2
:101DC0002E2E2E2E2E3C3078253038583E0D0A1BF4
:101DD0005B306D00FC2F00001B5B313B33366D5BCD
:101DE0004C44524F4D5D496E204150524F4D202E74
:101DF0002E2E2E2E2E3C3078253038583E0D0A1BC4
:101E00005B306D001B5B313B33366D5B4C44524F96
:101E10004D5D566572696679202E2E2E2E2E2E2E41
:101E20002E3C504153533E0D0A1B5B306D000000A9
:101E30001B5B313B33366D5B4C44524F4D5D5665F9
:101E400072696679202E2E2E2E2E2E2E2E3C464185
:101E5000494C3E0D0A1B5B306D00000010B5034974
:101E60000860014602A0FFF7CBF910BDFC1F00205F
:101E70001B5B313B33366D5B4C44524F4D5D5772AB
:101E8000697465204D61676963546167203C3078EF
:101E9000253032583E0D0A1B5B306D0000000000FB
:101EA000040000000C0000002400000000000000FE
:101EB000040000002C0000000000000000000000F2
:101EC000040000002C00000000000000001BB70010
:101ED000000000000000000000805101001BB7005E
:101EE000000000000000000000805101001BB7004E
:101EF000000000000000000000805101001BB7003E
:101F000000000000000000000000000000000000D1
:101F1000102700000000000000805101636F6D7009
:101F20006172655F627566666572005379735469A4
:101F3000636B5F48616E646C657200005C1F00003B
:101F4000000000207800000020120000D41F0000D4
:101F500078000020800A00003012000080F0FA02B1
:101F60003200000080F0FA02001BB7000000000001
:101F700080F0FA02102700000000000000000000BE
:101F8000000000000080510100000000000000007F
:101F9000000000000000000000000000FFFFFFFF45
:101FA0000000000000000000000000000000000031
:101FB0000000000000000000010000000000000020
:101FC0000000000000000000000000000000000011
:041FD000000000000D
:04000005000000F106
:00000001FF
